{
  "contractName": "Escrow",
  "abi": [
    {
      "inputs": [],
      "stateMutability": "nonpayable",
      "type": "constructor"
    },
    {
      "anonymous": false,
      "inputs": [
        {
          "indexed": false,
          "internalType": "uint256",
          "name": "unit",
          "type": "uint256"
        }
      ],
      "name": "unitPurchased",
      "type": "event"
    },
    {
      "stateMutability": "payable",
      "type": "fallback",
      "payable": true
    },
    {
      "inputs": [],
      "name": "buyer",
      "outputs": [
        {
          "internalType": "address",
          "name": "",
          "type": "address"
        }
      ],
      "stateMutability": "view",
      "type": "function",
      "constant": true
    },
    {
      "inputs": [],
      "name": "currentStatus",
      "outputs": [
        {
          "internalType": "enum Escrow.Status",
          "name": "",
          "type": "uint8"
        }
      ],
      "stateMutability": "view",
      "type": "function",
      "constant": true
    },
    {
      "inputs": [
        {
          "internalType": "uint256",
          "name": "",
          "type": "uint256"
        }
      ],
      "name": "owners",
      "outputs": [
        {
          "internalType": "address",
          "name": "",
          "type": "address"
        }
      ],
      "stateMutability": "view",
      "type": "function",
      "constant": true
    },
    {
      "inputs": [],
      "name": "seller",
      "outputs": [
        {
          "internalType": "address",
          "name": "",
          "type": "address"
        }
      ],
      "stateMutability": "view",
      "type": "function",
      "constant": true
    },
    {
      "stateMutability": "payable",
      "type": "receive",
      "payable": true
    },
    {
      "inputs": [],
      "name": "getBalance",
      "outputs": [
        {
          "internalType": "uint256",
          "name": "",
          "type": "uint256"
        }
      ],
      "stateMutability": "view",
      "type": "function",
      "constant": true
    },
    {
      "inputs": [
        {
          "internalType": "uint256",
          "name": "_unit",
          "type": "uint256"
        }
      ],
      "name": "makePayment",
      "outputs": [
        {
          "internalType": "uint256",
          "name": "purchasedUnit",
          "type": "uint256"
        }
      ],
      "stateMutability": "payable",
      "type": "function",
      "payable": true
    },
    {
      "inputs": [],
      "name": "completePurchase",
      "outputs": [],
      "stateMutability": "payable",
      "type": "function",
      "payable": true
    }
  ],
  "bytecode": "0x608060405234801561001057600080fd5b5033601160006101000a81548173ffffffffffffffffffffffffffffffffffffffff021916908373ffffffffffffffffffffffffffffffffffffffff1602179055506107c4806100616000396000f3fe6080604052600436106100745760003560e01c8063482174ad1161004e578063482174ad146101105780635114cb521461011a5780637150d8ae1461014a578063ef8a9235146101755761007b565b8063025e7c271461007d57806308551a53146100ba57806312065fe0146100e55761007b565b3661007b57005b005b34801561008957600080fd5b506100a4600480360381019061009f9190610531565b6101a0565b6040516100b1919061059f565b60405180910390f35b3480156100c657600080fd5b506100cf6101d6565b6040516100dc919061059f565b60405180910390f35b3480156100f157600080fd5b506100fa6101fc565b60405161010791906105c9565b60405180910390f35b610118610204565b005b610134600480360381019061012f9190610531565b61036c565b60405161014191906105c9565b60405180910390f35b34801561015657600080fd5b5061015f6104bd565b60405161016c919061059f565b60405180910390f35b34801561018157600080fd5b5061018a6104e3565b604051610197919061065b565b60405180910390f35b600081601081106101b057600080fd5b016000915054906101000a900473ffffffffffffffffffffffffffffffffffffffff1681565b601160009054906101000a900473ffffffffffffffffffffffffffffffffffffffff1681565b600047905090565b601160009054906101000a900473ffffffffffffffffffffffffffffffffffffffff1673ffffffffffffffffffffffffffffffffffffffff163373ffffffffffffffffffffffffffffffffffffffff1614610294576040517f08c379a000000000000000000000000000000000000000000000000000000000815260040161028b906106d3565b60405180910390fd5b60018060038111156102a9576102a86105e4565b5b601060009054906101000a900460ff1660038111156102cb576102ca6105e4565b5b146102d557600080fd5b601160009054906101000a900473ffffffffffffffffffffffffffffffffffffffff1673ffffffffffffffffffffffffffffffffffffffff166108fc479081150290604051600060405180830381858888f1935050505015801561033d573d6000803e3d6000fd5b506002601060006101000a81548160ff02191690836003811115610364576103636105e4565b5b021790555050565b600080821015801561037f5750600f8211155b6103be576040517f08c379a00000000000000000000000000000000000000000000000000000000081526004016103b59061073f565b60405180910390fd5b33601060016101000a81548173ffffffffffffffffffffffffffffffffffffffff021916908373ffffffffffffffffffffffffffffffffffffffff16021790555033600083601081106104145761041361075f565b5b0160006101000a81548173ffffffffffffffffffffffffffffffffffffffff021916908373ffffffffffffffffffffffffffffffffffffffff1602179055506001601060006101000a81548160ff02191690836003811115610479576104786105e4565b5b02179055507fc87d75ba5040804284604f6aef7ad2593a2783e5214e2a3d69b462dc9d7580e1826040516104ad91906105c9565b60405180910390a1819050919050565b601060019054906101000a900473ffffffffffffffffffffffffffffffffffffffff1681565b601060009054906101000a900460ff1681565b600080fd5b6000819050919050565b61050e816104fb565b811461051957600080fd5b50565b60008135905061052b81610505565b92915050565b600060208284031215610547576105466104f6565b5b60006105558482850161051c565b91505092915050565b600073ffffffffffffffffffffffffffffffffffffffff82169050919050565b60006105898261055e565b9050919050565b6105998161057e565b82525050565b60006020820190506105b46000830184610590565b92915050565b6105c3816104fb565b82525050565b60006020820190506105de60008301846105ba565b92915050565b7f4e487b7100000000000000000000000000000000000000000000000000000000600052602160045260246000fd5b60048110610624576106236105e4565b5b50565b600081905061063582610613565b919050565b600061064582610627565b9050919050565b6106558161063a565b82525050565b6000602082019050610670600083018461064c565b92915050565b600082825260208201905092915050565b7f4f6e6c792073656c6c65722063616e2070726f63657373207468697300000000600082015250565b60006106bd601c83610676565b91506106c882610687565b602082019050919050565b600060208201905081810360008301526106ec816106b0565b9050919050565b7f4e6f207375636820756e697420666f722073616c650000000000000000000000600082015250565b6000610729601583610676565b9150610734826106f3565b602082019050919050565b600060208201905081810360008301526107588161071c565b9050919050565b7f4e487b7100000000000000000000000000000000000000000000000000000000600052603260045260246000fdfea2646970667358221220b961f00aa84cf63e46af147c151d68cb8b514caa21729dc11abc2093aa4fefa164736f6c63430008090033",
  "immutableReferences": {},
  "source": "// SPDX-License-Identifier: GPL-3.0\r\n\r\npragma solidity >=0.7.0 <0.9.0;\r\n\r\n// V1 - Buyer will buy property directly\r\n\r\n// V2 - Buyer will reserve property and need to make a payment with 3 days.\r\n\r\n// Declare contract\r\ncontract Escrow {\r\n    \r\n    address[16] public owners;\r\n    \r\n    enum Status {\r\n        PENDING,\r\n        // PAID,\r\n        PROCESSING,\r\n        COMPLETE,\r\n        CANCEL\r\n    }\r\n    \r\n    Status public currentStatus;\r\n    address public buyer;\r\n    // Seller will deploy the smart contract\r\n    address public seller;\r\n    \r\n    // uint public currentDateTime = block.timestamp;\r\n    \r\n    // modifier onlyBuyer(){\r\n    //     require(msg.sender == buyer, \"Only buyer can pay for this\");\r\n    //     _;\r\n    // }\r\n    \r\n    modifier onlySeller(){\r\n        require(msg.sender == seller, \"Only seller can process this\");\r\n        _;\r\n    }\r\n    \r\n    modifier checkStatus(Status expectedState) {\r\n        require(currentStatus == expectedState);\r\n        _;\r\n    }\r\n    \r\n    // Run once to initialize the state of the contract\r\n    constructor() {\r\n        seller = msg.sender;\r\n    }\r\n    \r\n    // Must have if you want to use Metamask to send ETH to this contract\r\n    // Function to receive Ether. msg.data must be empty\r\n    receive() external payable {}\r\n\r\n    // Fallback function is called when msg.data is not empty\r\n    fallback() external payable {}\r\n    \r\n    // Get Balance of contract \r\n    function getBalance() public view returns (uint) {\r\n        return address(this).balance;\r\n    }\r\n    \r\n    event unitPurchased(uint unit);\r\n    \r\n    // \r\n    // function makePayment(uint _unit) checkStatus(Status.PENDING) external payable returns (uint){\r\n        function makePayment(uint _unit) external payable returns (uint purchasedUnit){\r\n        // require(currentStatus == Status.PENDING, \"Deposited made by buyer\");\r\n        require(_unit >= 0 && _unit <= 15, \"No such unit for sale\");\r\n        buyer = msg.sender;\r\n        owners[_unit] = msg.sender;\r\n        currentStatus = Status.PROCESSING;\r\n        emit unitPurchased(_unit);\r\n        return _unit;\r\n    }\r\n    \r\n    function completePurchase() onlySeller checkStatus(Status.PROCESSING) external payable{\r\n        // require(currentStatus == Status.PROCESSING, \"Waiting for Deposit\");\r\n        payable(seller).transfer(address(this).balance);\r\n        currentStatus = Status.COMPLETE;\r\n    }\r\n    \r\n    \r\n//     function readableDateTime(uint _currentDateTime) public {\r\n//         current = new Date(_currentDateTime * 1000);\r\n\r\n//     }\r\n}",
  "sourcePath": "D:\\Documents\\GitHub\\blockchain-developer-bootcamp-final-project\\huatescrow\\contracts\\Escrow.sol",
  "compiler": {
    "name": "solc",
    "version": "0.8.9+commit.e5eed63a.Emscripten.clang"
  },
  "schemaVersion": "3.4.3",
  "updatedAt": "2021-11-14T09:31:46.008Z",
  "networkType": "ethereum",
  "devdoc": {
    "kind": "dev",
    "methods": {},
    "version": 1
  },
  "userdoc": {
    "kind": "user",
    "methods": {},
    "version": 1
  }
}