{
  "contractName": "Escrow",
  "abi": [
    {
      "inputs": [],
      "stateMutability": "nonpayable",
      "type": "constructor"
    },
    {
      "anonymous": false,
      "inputs": [
        {
          "indexed": false,
          "internalType": "uint256",
          "name": "id",
          "type": "uint256"
        },
        {
          "indexed": false,
          "internalType": "address",
          "name": "owner",
          "type": "address"
        },
        {
          "indexed": false,
          "internalType": "uint256",
          "name": "deposit",
          "type": "uint256"
        }
      ],
      "name": "DepositCompleted",
      "type": "event"
    },
    {
      "anonymous": false,
      "inputs": [
        {
          "indexed": true,
          "internalType": "address",
          "name": "previousOwner",
          "type": "address"
        },
        {
          "indexed": true,
          "internalType": "address",
          "name": "newOwner",
          "type": "address"
        }
      ],
      "name": "OwnershipTransferred",
      "type": "event"
    },
    {
      "anonymous": false,
      "inputs": [
        {
          "indexed": false,
          "internalType": "uint256",
          "name": "id",
          "type": "uint256"
        }
      ],
      "name": "PropertyBooked",
      "type": "event"
    },
    {
      "anonymous": false,
      "inputs": [
        {
          "indexed": false,
          "internalType": "uint256",
          "name": "id",
          "type": "uint256"
        }
      ],
      "name": "PropertyCreated",
      "type": "event"
    },
    {
      "inputs": [],
      "name": "owner",
      "outputs": [
        {
          "internalType": "address",
          "name": "",
          "type": "address"
        }
      ],
      "stateMutability": "view",
      "type": "function"
    },
    {
      "inputs": [
        {
          "internalType": "uint256",
          "name": "",
          "type": "uint256"
        }
      ],
      "name": "properties",
      "outputs": [
        {
          "internalType": "string",
          "name": "roomType",
          "type": "string"
        },
        {
          "internalType": "uint256",
          "name": "price",
          "type": "uint256"
        },
        {
          "internalType": "enum Escrow.Status",
          "name": "currentStatus",
          "type": "uint8"
        },
        {
          "internalType": "uint256",
          "name": "deposit",
          "type": "uint256"
        },
        {
          "internalType": "address",
          "name": "owner",
          "type": "address"
        }
      ],
      "stateMutability": "view",
      "type": "function"
    },
    {
      "inputs": [],
      "name": "renounceOwnership",
      "outputs": [],
      "stateMutability": "nonpayable",
      "type": "function"
    },
    {
      "inputs": [],
      "name": "totalProperties",
      "outputs": [
        {
          "internalType": "uint256",
          "name": "",
          "type": "uint256"
        }
      ],
      "stateMutability": "view",
      "type": "function"
    },
    {
      "inputs": [
        {
          "internalType": "address",
          "name": "newOwner",
          "type": "address"
        }
      ],
      "name": "transferOwnership",
      "outputs": [],
      "stateMutability": "nonpayable",
      "type": "function"
    },
    {
      "inputs": [
        {
          "internalType": "string",
          "name": "_roomType",
          "type": "string"
        },
        {
          "internalType": "uint256",
          "name": "_price",
          "type": "uint256"
        }
      ],
      "name": "createProperty",
      "outputs": [],
      "stateMutability": "nonpayable",
      "type": "function"
    },
    {
      "inputs": [
        {
          "internalType": "uint256",
          "name": "_id",
          "type": "uint256"
        }
      ],
      "name": "payDeposit",
      "outputs": [],
      "stateMutability": "payable",
      "type": "function"
    },
    {
      "inputs": [
        {
          "internalType": "uint256",
          "name": "_id",
          "type": "uint256"
        }
      ],
      "name": "completeBooking",
      "outputs": [],
      "stateMutability": "nonpayable",
      "type": "function"
    }
  ],
  "bytecode": "0x608060405234801561001057600080fd5b5061002d61002261003a60201b60201c565b61004260201b60201c565b6000600181905550610106565b600033905090565b60008060009054906101000a900473ffffffffffffffffffffffffffffffffffffffff169050816000806101000a81548173ffffffffffffffffffffffffffffffffffffffff021916908373ffffffffffffffffffffffffffffffffffffffff1602179055508173ffffffffffffffffffffffffffffffffffffffff168173ffffffffffffffffffffffffffffffffffffffff167f8be0079c531659141344cd1fd0a4f28419497f9722a3daafe3b4186f6b6457e060405160405180910390a35050565b6117a5806101156000396000f3fe60806040526004361061007b5760003560e01c8063715018a61161004e578063715018a6146101195780638da5cb5b14610130578063f2fde38b1461015b578063f7b10808146101845761007b565b80630b3bce20146100805780631a2b3431146100ab57806328cd3f18146100d45780635a6368ef146100f0575b600080fd5b34801561008c57600080fd5b506100956101c5565b6040516100a29190610f53565b60405180910390f35b3480156100b757600080fd5b506100d260048036038101906100cd9190610fae565b6101cb565b005b6100ee60048036038101906100e99190610fae565b610555565b005b3480156100fc57600080fd5b5061011760048036038101906101129190611121565b610955565b005b34801561012557600080fd5b5061012e610b37565b005b34801561013c57600080fd5b50610145610bbf565b60405161015291906111be565b60405180910390f35b34801561016757600080fd5b50610182600480360381019061017d9190611205565b610be8565b005b34801561019057600080fd5b506101ab60048036038101906101a69190610fae565b610ce0565b6040516101bc959493929190611331565b60405180910390f35b60015481565b6101d3610dcb565b73ffffffffffffffffffffffffffffffffffffffff166101f1610bbf565b73ffffffffffffffffffffffffffffffffffffffff1614610247576040517f08c379a000000000000000000000000000000000000000000000000000000000815260040161023e906113d7565b60405180910390fd5b6001600281111561025b5761025a6112ba565b5b6002600083815260200190815260200160002060020160009054906101000a900460ff166002811115610291576102906112ba565b5b146102d1576040517f08c379a00000000000000000000000000000000000000000000000000000000081526004016102c890611443565b60405180910390fd5b6000600260008381526020019081526020016000206040518060a001604052908160008201805461030190611492565b80601f016020809104026020016040519081016040528092919081815260200182805461032d90611492565b801561037a5780601f1061034f5761010080835404028352916020019161037a565b820191906000526020600020905b81548152906001019060200180831161035d57829003601f168201915b50505050508152602001600182015481526020016002820160009054906101000a900460ff1660028111156103b2576103b16112ba565b5b60028111156103c4576103c36112ba565b5b8152602001600382015481526020016004820160009054906101000a900473ffffffffffffffffffffffffffffffffffffffff1673ffffffffffffffffffffffffffffffffffffffff1673ffffffffffffffffffffffffffffffffffffffff16815250509050600281604001906002811115610443576104426112ba565b5b90816002811115610457576104566112ba565b5b815250508060026000848152602001908152602001600020600082015181600001908051906020019061048b929190610e97565b506020820151816001015560408201518160020160006101000a81548160ff021916908360028111156104c1576104c06112ba565b5b02179055506060820151816003015560808201518160040160006101000a81548173ffffffffffffffffffffffffffffffffffffffff021916908373ffffffffffffffffffffffffffffffffffffffff1602179055509050507f64b471a5a94e2ca8abdaf872f59ae5a2811824c203d713c09388a5ff85e06125826040516105499190610f53565b60405180910390a15050565b80600260008281526020019081526020016000206001015434146105ae576040517f08c379a00000000000000000000000000000000000000000000000000000000081526004016105a590611536565b60405180910390fd5b600182101580156105c157506001548211155b610600576040517f08c379a00000000000000000000000000000000000000000000000000000000081526004016105f7906115a2565b60405180910390fd5b60006002811115610614576106136112ba565b5b6002600084815260200190815260200160002060020160009054906101000a900460ff16600281111561064a576106496112ba565b5b1461068a576040517f08c379a00000000000000000000000000000000000000000000000000000000081526004016106819061160e565b60405180910390fd5b6000600260008481526020019081526020016000206040518060a00160405290816000820180546106ba90611492565b80601f01602080910402602001604051908101604052809291908181526020018280546106e690611492565b80156107335780601f1061070857610100808354040283529160200191610733565b820191906000526020600020905b81548152906001019060200180831161071657829003601f168201915b50505050508152602001600182015481526020016002820160009054906101000a900460ff16600281111561076b5761076a6112ba565b5b600281111561077d5761077c6112ba565b5b8152602001600382015481526020016004820160009054906101000a900473ffffffffffffffffffffffffffffffffffffffff1673ffffffffffffffffffffffffffffffffffffffff1673ffffffffffffffffffffffffffffffffffffffff168152505090503481606001818152505033816080019073ffffffffffffffffffffffffffffffffffffffff16908173ffffffffffffffffffffffffffffffffffffffff168152505060018160400190600281111561083e5761083d6112ba565b5b90816002811115610852576108516112ba565b5b8152505080600260008581526020019081526020016000206000820151816000019080519060200190610886929190610e97565b506020820151816001015560408201518160020160006101000a81548160ff021916908360028111156108bc576108bb6112ba565b5b02179055506060820151816003015560808201518160040160006101000a81548173ffffffffffffffffffffffffffffffffffffffff021916908373ffffffffffffffffffffffffffffffffffffffff1602179055509050507f56689df5b6781ed4dfe4433ada8842732f0c869c9b237df9cd77ca9bc9f902f38333346040516109489392919061162e565b60405180910390a1505050565b61095d610dcb565b73ffffffffffffffffffffffffffffffffffffffff1661097b610bbf565b73ffffffffffffffffffffffffffffffffffffffff16146109d1576040517f08c379a00000000000000000000000000000000000000000000000000000000081526004016109c8906113d7565b60405180910390fd5b600160008154809291906109e490611694565b91905055506040518060a0016040528083815260200182815260200160006002811115610a1457610a136112ba565b5b8152602001600081526020013373ffffffffffffffffffffffffffffffffffffffff168152506002600060015481526020019081526020016000206000820151816000019080519060200190610a6b929190610e97565b506020820151816001015560408201518160020160006101000a81548160ff02191690836002811115610aa157610aa06112ba565b5b02179055506060820151816003015560808201518160040160006101000a81548173ffffffffffffffffffffffffffffffffffffffff021916908373ffffffffffffffffffffffffffffffffffffffff1602179055509050507f4f0296eab18f3220979d7d544a913bc801138a09094c56438fc80bc73ad8f2a9600154604051610b2b9190610f53565b60405180910390a15050565b610b3f610dcb565b73ffffffffffffffffffffffffffffffffffffffff16610b5d610bbf565b73ffffffffffffffffffffffffffffffffffffffff1614610bb3576040517f08c379a0000000000000000000000000000000000000000000000000000000008152600401610baa906113d7565b60405180910390fd5b610bbd6000610dd3565b565b60008060009054906101000a900473ffffffffffffffffffffffffffffffffffffffff16905090565b610bf0610dcb565b73ffffffffffffffffffffffffffffffffffffffff16610c0e610bbf565b73ffffffffffffffffffffffffffffffffffffffff1614610c64576040517f08c379a0000000000000000000000000000000000000000000000000000000008152600401610c5b906113d7565b60405180910390fd5b600073ffffffffffffffffffffffffffffffffffffffff168173ffffffffffffffffffffffffffffffffffffffff161415610cd4576040517f08c379a0000000000000000000000000000000000000000000000000000000008152600401610ccb9061174f565b60405180910390fd5b610cdd81610dd3565b50565b6002602052806000526040600020600091509050806000018054610d0390611492565b80601f0160208091040260200160405190810160405280929190818152602001828054610d2f90611492565b8015610d7c5780601f10610d5157610100808354040283529160200191610d7c565b820191906000526020600020905b815481529060010190602001808311610d5f57829003601f168201915b5050505050908060010154908060020160009054906101000a900460ff16908060030154908060040160009054906101000a900473ffffffffffffffffffffffffffffffffffffffff16905085565b600033905090565b60008060009054906101000a900473ffffffffffffffffffffffffffffffffffffffff169050816000806101000a81548173ffffffffffffffffffffffffffffffffffffffff021916908373ffffffffffffffffffffffffffffffffffffffff1602179055508173ffffffffffffffffffffffffffffffffffffffff168173ffffffffffffffffffffffffffffffffffffffff167f8be0079c531659141344cd1fd0a4f28419497f9722a3daafe3b4186f6b6457e060405160405180910390a35050565b828054610ea390611492565b90600052602060002090601f016020900481019282610ec55760008555610f0c565b82601f10610ede57805160ff1916838001178555610f0c565b82800160010185558215610f0c579182015b82811115610f0b578251825591602001919060010190610ef0565b5b509050610f199190610f1d565b5090565b5b80821115610f36576000816000905550600101610f1e565b5090565b6000819050919050565b610f4d81610f3a565b82525050565b6000602082019050610f686000830184610f44565b92915050565b6000604051905090565b600080fd5b600080fd5b610f8b81610f3a565b8114610f9657600080fd5b50565b600081359050610fa881610f82565b92915050565b600060208284031215610fc457610fc3610f78565b5b6000610fd284828501610f99565b91505092915050565b600080fd5b600080fd5b6000601f19601f8301169050919050565b7f4e487b7100000000000000000000000000000000000000000000000000000000600052604160045260246000fd5b61102e82610fe5565b810181811067ffffffffffffffff8211171561104d5761104c610ff6565b5b80604052505050565b6000611060610f6e565b905061106c8282611025565b919050565b600067ffffffffffffffff82111561108c5761108b610ff6565b5b61109582610fe5565b9050602081019050919050565b82818337600083830152505050565b60006110c46110bf84611071565b611056565b9050828152602081018484840111156110e0576110df610fe0565b5b6110eb8482856110a2565b509392505050565b600082601f83011261110857611107610fdb565b5b81356111188482602086016110b1565b91505092915050565b6000806040838503121561113857611137610f78565b5b600083013567ffffffffffffffff81111561115657611155610f7d565b5b611162858286016110f3565b925050602061117385828601610f99565b9150509250929050565b600073ffffffffffffffffffffffffffffffffffffffff82169050919050565b60006111a88261117d565b9050919050565b6111b88161119d565b82525050565b60006020820190506111d360008301846111af565b92915050565b6111e28161119d565b81146111ed57600080fd5b50565b6000813590506111ff816111d9565b92915050565b60006020828403121561121b5761121a610f78565b5b6000611229848285016111f0565b91505092915050565b600081519050919050565b600082825260208201905092915050565b60005b8381101561126c578082015181840152602081019050611251565b8381111561127b576000848401525b50505050565b600061128c82611232565b611296818561123d565b93506112a681856020860161124e565b6112af81610fe5565b840191505092915050565b7f4e487b7100000000000000000000000000000000000000000000000000000000600052602160045260246000fd5b600381106112fa576112f96112ba565b5b50565b600081905061130b826112e9565b919050565b600061131b826112fd565b9050919050565b61132b81611310565b82525050565b600060a082019050818103600083015261134b8188611281565b905061135a6020830187610f44565b6113676040830186611322565b6113746060830185610f44565b61138160808301846111af565b9695505050505050565b7f4f776e61626c653a2063616c6c6572206973206e6f7420746865206f776e6572600082015250565b60006113c160208361123d565b91506113cc8261138b565b602082019050919050565b600060208201905081810360008301526113f0816113b4565b9050919050565b7f50726f7065727479206973206e6f7420626f6f6b656400000000000000000000600082015250565b600061142d60168361123d565b9150611438826113f7565b602082019050919050565b6000602082019050818103600083015261145c81611420565b9050919050565b7f4e487b7100000000000000000000000000000000000000000000000000000000600052602260045260246000fd5b600060028204905060018216806114aa57607f821691505b602082108114156114be576114bd611463565b5b50919050565b7f506c6561736520706179207468652066756c6c206465706f736974206174206f60008201527f6e6520676f000000000000000000000000000000000000000000000000000000602082015250565b600061152060258361123d565b915061152b826114c4565b604082019050919050565b6000602082019050818103600083015261154f81611513565b9050919050565b7f4e6f207375636820756e697420666f722073616c650000000000000000000000600082015250565b600061158c60158361123d565b915061159782611556565b602082019050919050565b600060208201905081810360008301526115bb8161157f565b9050919050565b7f50726f706572747920556e697420737461747573206973206e6f74204e657700600082015250565b60006115f8601f8361123d565b9150611603826115c2565b602082019050919050565b60006020820190508181036000830152611627816115eb565b9050919050565b60006060820190506116436000830186610f44565b61165060208301856111af565b61165d6040830184610f44565b949350505050565b7f4e487b7100000000000000000000000000000000000000000000000000000000600052601160045260246000fd5b600061169f82610f3a565b91507fffffffffffffffffffffffffffffffffffffffffffffffffffffffffffffffff8214156116d2576116d1611665565b5b600182019050919050565b7f4f776e61626c653a206e6577206f776e657220697320746865207a65726f206160008201527f6464726573730000000000000000000000000000000000000000000000000000602082015250565b600061173960268361123d565b9150611744826116dd565b604082019050919050565b600060208201905081810360008301526117688161172c565b905091905056fea2646970667358221220a494e614ad0c94a7c83607265b34bb8fbc3ab4d72a6966490adb7a58b399e89e64736f6c63430008090033",
  "immutableReferences": {},
  "source": "// SPDX-License-Identifier: GPL-3.0\r\npragma solidity >=0.7.0 <0.9.0;\r\n\r\nimport \"@openzeppelin/contracts/access/Ownable.sol\";\r\n\r\n/// @title Simple Escrow Contract to book and make a downpayment for a condominium\r\n/// @author AdrianTeoYC\r\n/// @notice You can use this contract if you like, it is not production-ready\r\n/// @dev All function calls are currently implemented without side effects\r\n/// @custom:experimental This is an experimental contract for my consensys blockchain bootcamp.\r\ncontract Escrow is Ownable {\r\n\r\n    /// @dev Status of Property purchases \r\n    enum Status {\r\n        NEW,\r\n        BOOKED,\r\n        COMPLETED\r\n        // TODO V2: CANCEL\r\n    }\r\n\r\n    /// @notice Numnber of properties listed in the Contract\r\n    /// @dev Used as a helper to iterate properties in the frontend\r\n    uint public totalProperties;\r\n    \r\n\r\n    struct Property {\r\n        string roomType;\r\n        uint price;\r\n        Status currentStatus;\r\n        uint deposit;\r\n        address owner;\r\n    }\r\n    \r\n    /// @notice The properties' detail in the contract\r\n    mapping (uint => Property) public properties;\r\n    \r\n    constructor() {\r\n        totalProperties = 0;\r\n    }\r\n    \r\n    /// @dev msg.value is in wei\r\n    modifier isFullDeposit(uint id) {\r\n        require( msg.value == properties[id].price, \"Please pay the full deposit at one go\");\r\n        _;\r\n    }\r\n    \r\n    /// @dev Emit event when a property is created in the contract\r\n    event PropertyCreated(uint id);\r\n    \r\n    /// @dev Emit event when downpayment deposit is made for a property\r\n    event DepositCompleted(uint id, address owner, uint deposit);\r\n    \r\n    /// @dev Emit event when contract owner verify and complete the booking of a property\r\n    event PropertyBooked(uint id);\r\n    \r\n    /// @notice Creates a property listing\r\n    /// @dev Allow only owner of contract to create a property\r\n    /// @param _roomType is the number of bedrooms for this property\r\n    /// @param _price is the price of this property in wei\r\n    function createProperty(string memory _roomType, uint _price) public onlyOwner {\r\n        // Check property don't exisit, check mapping count\r\n       totalProperties ++;\r\n       properties[totalProperties] = Property(_roomType,  _price, Status.NEW, 0, msg.sender );\r\n       emit PropertyCreated(totalProperties);\r\n    }\r\n    \r\n    /// @notice Buyer to make the downpayment deposit\r\n    /// @dev Payable need to be made in full at one transaction with currentStatus as NEW\r\n    /// @param _id propertyID\r\n    \r\n    function payDeposit(uint _id) isFullDeposit(_id) public payable {\r\n        require(_id >=1 && _id <= totalProperties, \"No such unit for sale\");\r\n        require(properties[_id].currentStatus == Status.NEW, \"Property Unit status is not New\" );\r\n        \r\n        Property memory _property = properties[_id];\r\n        _property.deposit = msg.value;\r\n        _property.owner = msg.sender;\r\n        _property.currentStatus = Status.BOOKED;\r\n        properties[_id] = _property;\r\n        emit DepositCompleted(_id, msg.sender, msg.value);\r\n    }\r\n    \r\n      // TODO V2 Time-base to commplete the purchase, NFT\r\n    // Check if status is PROCESSING\r\n    function completeBooking(uint _id) public onlyOwner {\r\n        require(properties[_id].currentStatus == Status.BOOKED, \"Property is not booked\");\r\n        // TODO transfer ETH to Property developer's account\r\n        Property memory _property = properties[_id];\r\n        _property.currentStatus = Status.COMPLETED;\r\n        properties[_id] = _property;\r\n        emit PropertyBooked(_id);\r\n    }\r\n    // TODO V2 transfer account balance to owner if status.COMPLETED\r\n\r\n}",
  "sourcePath": "D:\\Documents\\GitHub\\blockchain-developer-bootcamp-final-project\\huatescrow\\contracts\\Escrow.sol",
  "compiler": {
    "name": "solc",
    "version": "0.8.9+commit.e5eed63a.Emscripten.clang"
  },
  "schemaVersion": "3.4.3",
  "updatedAt": "2021-11-25T13:03:17.301Z",
  "devdoc": {
    "author": "AdrianTeoYC",
    "custom:experimental": "This is an experimental contract for my consensys blockchain bootcamp.",
    "details": "All function calls are currently implemented without side effects",
    "events": {
      "DepositCompleted(uint256,address,uint256)": {
        "details": "Emit event when downpayment deposit is made for a property"
      },
      "PropertyBooked(uint256)": {
        "details": "Emit event when contract owner verify and complete the booking of a property"
      },
      "PropertyCreated(uint256)": {
        "details": "Emit event when a property is created in the contract"
      }
    },
    "kind": "dev",
    "methods": {
      "createProperty(string,uint256)": {
        "details": "Allow only owner of contract to create a property",
        "params": {
          "_price": "is the price of this property in wei",
          "_roomType": "is the number of bedrooms for this property"
        }
      },
      "owner()": {
        "details": "Returns the address of the current owner."
      },
      "payDeposit(uint256)": {
        "details": "Payable need to be made in full at one transaction with currentStatus as NEW",
        "params": {
          "_id": "propertyID"
        }
      },
      "renounceOwnership()": {
        "details": "Leaves the contract without owner. It will not be possible to call `onlyOwner` functions anymore. Can only be called by the current owner. NOTE: Renouncing ownership will leave the contract without an owner, thereby removing any functionality that is only available to the owner."
      },
      "transferOwnership(address)": {
        "details": "Transfers ownership of the contract to a new account (`newOwner`). Can only be called by the current owner."
      }
    },
    "stateVariables": {
      "totalProperties": {
        "details": "Used as a helper to iterate properties in the frontend"
      }
    },
    "title": "Simple Escrow Contract to book and make a downpayment for a condominium",
    "version": 1
  },
  "userdoc": {
    "kind": "user",
    "methods": {
      "createProperty(string,uint256)": {
        "notice": "Creates a property listing"
      },
      "payDeposit(uint256)": {
        "notice": "Buyer to make the downpayment deposit"
      },
      "properties(uint256)": {
        "notice": "The properties' detail in the contract"
      },
      "totalProperties()": {
        "notice": "Numnber of properties listed in the Contract"
      }
    },
    "notice": "You can use this contract if you like, it is not production-ready",
    "version": 1
  }
}