{
  "contractName": "Escrow",
  "abi": [
    {
      "inputs": [],
      "stateMutability": "nonpayable",
      "type": "constructor"
    },
    {
      "anonymous": false,
      "inputs": [
        {
          "indexed": false,
          "internalType": "uint256",
          "name": "id",
          "type": "uint256"
        },
        {
          "indexed": false,
          "internalType": "address",
          "name": "owner",
          "type": "address"
        },
        {
          "indexed": false,
          "internalType": "uint256",
          "name": "deposit",
          "type": "uint256"
        }
      ],
      "name": "DepositCompleted",
      "type": "event"
    },
    {
      "anonymous": false,
      "inputs": [
        {
          "indexed": true,
          "internalType": "address",
          "name": "previousOwner",
          "type": "address"
        },
        {
          "indexed": true,
          "internalType": "address",
          "name": "newOwner",
          "type": "address"
        }
      ],
      "name": "OwnershipTransferred",
      "type": "event"
    },
    {
      "anonymous": false,
      "inputs": [
        {
          "indexed": false,
          "internalType": "uint256",
          "name": "id",
          "type": "uint256"
        }
      ],
      "name": "PropertyBooked",
      "type": "event"
    },
    {
      "anonymous": false,
      "inputs": [
        {
          "indexed": false,
          "internalType": "uint256",
          "name": "id",
          "type": "uint256"
        }
      ],
      "name": "PropertyCreated",
      "type": "event"
    },
    {
      "inputs": [],
      "name": "owner",
      "outputs": [
        {
          "internalType": "address",
          "name": "",
          "type": "address"
        }
      ],
      "stateMutability": "view",
      "type": "function",
      "constant": true
    },
    {
      "inputs": [
        {
          "internalType": "uint256",
          "name": "",
          "type": "uint256"
        }
      ],
      "name": "properties",
      "outputs": [
        {
          "internalType": "string",
          "name": "roomType",
          "type": "string"
        },
        {
          "internalType": "uint256",
          "name": "price",
          "type": "uint256"
        },
        {
          "internalType": "enum Escrow.Status",
          "name": "currentStatus",
          "type": "uint8"
        },
        {
          "internalType": "uint256",
          "name": "deposit",
          "type": "uint256"
        },
        {
          "internalType": "address",
          "name": "owner",
          "type": "address"
        }
      ],
      "stateMutability": "view",
      "type": "function",
      "constant": true
    },
    {
      "inputs": [],
      "name": "renounceOwnership",
      "outputs": [],
      "stateMutability": "nonpayable",
      "type": "function"
    },
    {
      "inputs": [],
      "name": "totalProperties",
      "outputs": [
        {
          "internalType": "uint256",
          "name": "",
          "type": "uint256"
        }
      ],
      "stateMutability": "view",
      "type": "function",
      "constant": true
    },
    {
      "inputs": [
        {
          "internalType": "address",
          "name": "newOwner",
          "type": "address"
        }
      ],
      "name": "transferOwnership",
      "outputs": [],
      "stateMutability": "nonpayable",
      "type": "function"
    },
    {
      "inputs": [
        {
          "internalType": "string",
          "name": "_roomType",
          "type": "string"
        },
        {
          "internalType": "uint256",
          "name": "_price",
          "type": "uint256"
        }
      ],
      "name": "createProperty",
      "outputs": [
        {
          "internalType": "uint256",
          "name": "",
          "type": "uint256"
        }
      ],
      "stateMutability": "nonpayable",
      "type": "function"
    },
    {
      "inputs": [
        {
          "internalType": "uint256",
          "name": "_id",
          "type": "uint256"
        }
      ],
      "name": "payDeposit",
      "outputs": [],
      "stateMutability": "payable",
      "type": "function",
      "payable": true
    },
    {
      "inputs": [
        {
          "internalType": "uint256",
          "name": "_id",
          "type": "uint256"
        }
      ],
      "name": "completeBooking",
      "outputs": [],
      "stateMutability": "nonpayable",
      "type": "function"
    }
  ],
  "bytecode": "0x608060405234801561001057600080fd5b5061002d61002261003a60201b60201c565b61004260201b60201c565b6000600181905550610106565b600033905090565b60008060009054906101000a900473ffffffffffffffffffffffffffffffffffffffff169050816000806101000a81548173ffffffffffffffffffffffffffffffffffffffff021916908373ffffffffffffffffffffffffffffffffffffffff1602179055508173ffffffffffffffffffffffffffffffffffffffff168173ffffffffffffffffffffffffffffffffffffffff167f8be0079c531659141344cd1fd0a4f28419497f9722a3daafe3b4186f6b6457e060405160405180910390a35050565b6117c2806101156000396000f3fe60806040526004361061007b5760003560e01c8063715018a61161004e578063715018a61461012d5780638da5cb5b14610144578063f2fde38b1461016f578063f7b10808146101985761007b565b80630b3bce20146100805780631a2b3431146100ab57806328cd3f18146100d45780635a6368ef146100f0575b600080fd5b34801561008c57600080fd5b506100956101d9565b6040516100a29190610f70565b60405180910390f35b3480156100b757600080fd5b506100d260048036038101906100cd9190610fcb565b6101df565b005b6100ee60048036038101906100e99190610fcb565b610569565b005b3480156100fc57600080fd5b506101176004803603810190610112919061113e565b610969565b6040516101249190610f70565b60405180910390f35b34801561013957600080fd5b50610142610b54565b005b34801561015057600080fd5b50610159610bdc565b60405161016691906111db565b60405180910390f35b34801561017b57600080fd5b5061019660048036038101906101919190611222565b610c05565b005b3480156101a457600080fd5b506101bf60048036038101906101ba9190610fcb565b610cfd565b6040516101d095949392919061134e565b60405180910390f35b60015481565b6101e7610de8565b73ffffffffffffffffffffffffffffffffffffffff16610205610bdc565b73ffffffffffffffffffffffffffffffffffffffff161461025b576040517f08c379a0000000000000000000000000000000000000000000000000000000008152600401610252906113f4565b60405180910390fd5b6001600281111561026f5761026e6112d7565b5b6002600083815260200190815260200160002060020160009054906101000a900460ff1660028111156102a5576102a46112d7565b5b146102e5576040517f08c379a00000000000000000000000000000000000000000000000000000000081526004016102dc90611460565b60405180910390fd5b6000600260008381526020019081526020016000206040518060a0016040529081600082018054610315906114af565b80601f0160208091040260200160405190810160405280929190818152602001828054610341906114af565b801561038e5780601f106103635761010080835404028352916020019161038e565b820191906000526020600020905b81548152906001019060200180831161037157829003601f168201915b50505050508152602001600182015481526020016002820160009054906101000a900460ff1660028111156103c6576103c56112d7565b5b60028111156103d8576103d76112d7565b5b8152602001600382015481526020016004820160009054906101000a900473ffffffffffffffffffffffffffffffffffffffff1673ffffffffffffffffffffffffffffffffffffffff1673ffffffffffffffffffffffffffffffffffffffff16815250509050600281604001906002811115610457576104566112d7565b5b9081600281111561046b5761046a6112d7565b5b815250508060026000848152602001908152602001600020600082015181600001908051906020019061049f929190610eb4565b506020820151816001015560408201518160020160006101000a81548160ff021916908360028111156104d5576104d46112d7565b5b02179055506060820151816003015560808201518160040160006101000a81548173ffffffffffffffffffffffffffffffffffffffff021916908373ffffffffffffffffffffffffffffffffffffffff1602179055509050507f64b471a5a94e2ca8abdaf872f59ae5a2811824c203d713c09388a5ff85e061258260405161055d9190610f70565b60405180910390a15050565b80600260008281526020019081526020016000206001015434146105c2576040517f08c379a00000000000000000000000000000000000000000000000000000000081526004016105b990611553565b60405180910390fd5b600182101580156105d557506001548211155b610614576040517f08c379a000000000000000000000000000000000000000000000000000000000815260040161060b906115bf565b60405180910390fd5b60006002811115610628576106276112d7565b5b6002600084815260200190815260200160002060020160009054906101000a900460ff16600281111561065e5761065d6112d7565b5b1461069e576040517f08c379a00000000000000000000000000000000000000000000000000000000081526004016106959061162b565b60405180910390fd5b6000600260008481526020019081526020016000206040518060a00160405290816000820180546106ce906114af565b80601f01602080910402602001604051908101604052809291908181526020018280546106fa906114af565b80156107475780601f1061071c57610100808354040283529160200191610747565b820191906000526020600020905b81548152906001019060200180831161072a57829003601f168201915b50505050508152602001600182015481526020016002820160009054906101000a900460ff16600281111561077f5761077e6112d7565b5b6002811115610791576107906112d7565b5b8152602001600382015481526020016004820160009054906101000a900473ffffffffffffffffffffffffffffffffffffffff1673ffffffffffffffffffffffffffffffffffffffff1673ffffffffffffffffffffffffffffffffffffffff168152505090503481606001818152505033816080019073ffffffffffffffffffffffffffffffffffffffff16908173ffffffffffffffffffffffffffffffffffffffff1681525050600181604001906002811115610852576108516112d7565b5b90816002811115610866576108656112d7565b5b815250508060026000858152602001908152602001600020600082015181600001908051906020019061089a929190610eb4565b506020820151816001015560408201518160020160006101000a81548160ff021916908360028111156108d0576108cf6112d7565b5b02179055506060820151816003015560808201518160040160006101000a81548173ffffffffffffffffffffffffffffffffffffffff021916908373ffffffffffffffffffffffffffffffffffffffff1602179055509050507f56689df5b6781ed4dfe4433ada8842732f0c869c9b237df9cd77ca9bc9f902f383333460405161095c9392919061164b565b60405180910390a1505050565b6000610973610de8565b73ffffffffffffffffffffffffffffffffffffffff16610991610bdc565b73ffffffffffffffffffffffffffffffffffffffff16146109e7576040517f08c379a00000000000000000000000000000000000000000000000000000000081526004016109de906113f4565b60405180910390fd5b600160008154809291906109fa906116b1565b91905055506040518060a0016040528084815260200183815260200160006002811115610a2a57610a296112d7565b5b8152602001600081526020013373ffffffffffffffffffffffffffffffffffffffff168152506002600060015481526020019081526020016000206000820151816000019080519060200190610a81929190610eb4565b506020820151816001015560408201518160020160006101000a81548160ff02191690836002811115610ab757610ab66112d7565b5b02179055506060820151816003015560808201518160040160006101000a81548173ffffffffffffffffffffffffffffffffffffffff021916908373ffffffffffffffffffffffffffffffffffffffff1602179055509050507f4f0296eab18f3220979d7d544a913bc801138a09094c56438fc80bc73ad8f2a9600154604051610b419190610f70565b60405180910390a1600154905092915050565b610b5c610de8565b73ffffffffffffffffffffffffffffffffffffffff16610b7a610bdc565b73ffffffffffffffffffffffffffffffffffffffff1614610bd0576040517f08c379a0000000000000000000000000000000000000000000000000000000008152600401610bc7906113f4565b60405180910390fd5b610bda6000610df0565b565b60008060009054906101000a900473ffffffffffffffffffffffffffffffffffffffff16905090565b610c0d610de8565b73ffffffffffffffffffffffffffffffffffffffff16610c2b610bdc565b73ffffffffffffffffffffffffffffffffffffffff1614610c81576040517f08c379a0000000000000000000000000000000000000000000000000000000008152600401610c78906113f4565b60405180910390fd5b600073ffffffffffffffffffffffffffffffffffffffff168173ffffffffffffffffffffffffffffffffffffffff161415610cf1576040517f08c379a0000000000000000000000000000000000000000000000000000000008152600401610ce89061176c565b60405180910390fd5b610cfa81610df0565b50565b6002602052806000526040600020600091509050806000018054610d20906114af565b80601f0160208091040260200160405190810160405280929190818152602001828054610d4c906114af565b8015610d995780601f10610d6e57610100808354040283529160200191610d99565b820191906000526020600020905b815481529060010190602001808311610d7c57829003601f168201915b5050505050908060010154908060020160009054906101000a900460ff16908060030154908060040160009054906101000a900473ffffffffffffffffffffffffffffffffffffffff16905085565b600033905090565b60008060009054906101000a900473ffffffffffffffffffffffffffffffffffffffff169050816000806101000a81548173ffffffffffffffffffffffffffffffffffffffff021916908373ffffffffffffffffffffffffffffffffffffffff1602179055508173ffffffffffffffffffffffffffffffffffffffff168173ffffffffffffffffffffffffffffffffffffffff167f8be0079c531659141344cd1fd0a4f28419497f9722a3daafe3b4186f6b6457e060405160405180910390a35050565b828054610ec0906114af565b90600052602060002090601f016020900481019282610ee25760008555610f29565b82601f10610efb57805160ff1916838001178555610f29565b82800160010185558215610f29579182015b82811115610f28578251825591602001919060010190610f0d565b5b509050610f369190610f3a565b5090565b5b80821115610f53576000816000905550600101610f3b565b5090565b6000819050919050565b610f6a81610f57565b82525050565b6000602082019050610f856000830184610f61565b92915050565b6000604051905090565b600080fd5b600080fd5b610fa881610f57565b8114610fb357600080fd5b50565b600081359050610fc581610f9f565b92915050565b600060208284031215610fe157610fe0610f95565b5b6000610fef84828501610fb6565b91505092915050565b600080fd5b600080fd5b6000601f19601f8301169050919050565b7f4e487b7100000000000000000000000000000000000000000000000000000000600052604160045260246000fd5b61104b82611002565b810181811067ffffffffffffffff8211171561106a57611069611013565b5b80604052505050565b600061107d610f8b565b90506110898282611042565b919050565b600067ffffffffffffffff8211156110a9576110a8611013565b5b6110b282611002565b9050602081019050919050565b82818337600083830152505050565b60006110e16110dc8461108e565b611073565b9050828152602081018484840111156110fd576110fc610ffd565b5b6111088482856110bf565b509392505050565b600082601f83011261112557611124610ff8565b5b81356111358482602086016110ce565b91505092915050565b6000806040838503121561115557611154610f95565b5b600083013567ffffffffffffffff81111561117357611172610f9a565b5b61117f85828601611110565b925050602061119085828601610fb6565b9150509250929050565b600073ffffffffffffffffffffffffffffffffffffffff82169050919050565b60006111c58261119a565b9050919050565b6111d5816111ba565b82525050565b60006020820190506111f060008301846111cc565b92915050565b6111ff816111ba565b811461120a57600080fd5b50565b60008135905061121c816111f6565b92915050565b60006020828403121561123857611237610f95565b5b60006112468482850161120d565b91505092915050565b600081519050919050565b600082825260208201905092915050565b60005b8381101561128957808201518184015260208101905061126e565b83811115611298576000848401525b50505050565b60006112a98261124f565b6112b3818561125a565b93506112c381856020860161126b565b6112cc81611002565b840191505092915050565b7f4e487b7100000000000000000000000000000000000000000000000000000000600052602160045260246000fd5b60038110611317576113166112d7565b5b50565b600081905061132882611306565b919050565b60006113388261131a565b9050919050565b6113488161132d565b82525050565b600060a0820190508181036000830152611368818861129e565b90506113776020830187610f61565b611384604083018661133f565b6113916060830185610f61565b61139e60808301846111cc565b9695505050505050565b7f4f776e61626c653a2063616c6c6572206973206e6f7420746865206f776e6572600082015250565b60006113de60208361125a565b91506113e9826113a8565b602082019050919050565b6000602082019050818103600083015261140d816113d1565b9050919050565b7f50726f7065727479206973206e6f7420626f6f6b656400000000000000000000600082015250565b600061144a60168361125a565b915061145582611414565b602082019050919050565b600060208201905081810360008301526114798161143d565b9050919050565b7f4e487b7100000000000000000000000000000000000000000000000000000000600052602260045260246000fd5b600060028204905060018216806114c757607f821691505b602082108114156114db576114da611480565b5b50919050565b7f506c6561736520706179207468652066756c6c206465706f736974206174206f60008201527f6e6520676f000000000000000000000000000000000000000000000000000000602082015250565b600061153d60258361125a565b9150611548826114e1565b604082019050919050565b6000602082019050818103600083015261156c81611530565b9050919050565b7f4e6f207375636820756e697420666f722073616c650000000000000000000000600082015250565b60006115a960158361125a565b91506115b482611573565b602082019050919050565b600060208201905081810360008301526115d88161159c565b9050919050565b7f50726f706572747920556e697420737461747573206973206e6f74204e657700600082015250565b6000611615601f8361125a565b9150611620826115df565b602082019050919050565b6000602082019050818103600083015261164481611608565b9050919050565b60006060820190506116606000830186610f61565b61166d60208301856111cc565b61167a6040830184610f61565b949350505050565b7f4e487b7100000000000000000000000000000000000000000000000000000000600052601160045260246000fd5b60006116bc82610f57565b91507fffffffffffffffffffffffffffffffffffffffffffffffffffffffffffffffff8214156116ef576116ee611682565b5b600182019050919050565b7f4f776e61626c653a206e6577206f776e657220697320746865207a65726f206160008201527f6464726573730000000000000000000000000000000000000000000000000000602082015250565b600061175660268361125a565b9150611761826116fa565b604082019050919050565b6000602082019050818103600083015261178581611749565b905091905056fea26469706673582212206b91e00442d2cc01710aa0200c4522c956fbf4225031da72761b1f8a6f170fa164736f6c63430008090033",
  "immutableReferences": {},
  "source": "// SPDX-License-Identifier: GPL-3.0\r\npragma solidity 0.8.9;\r\n\r\nimport \"@openzeppelin/contracts/access/Ownable.sol\";\r\n\r\n/// @title Simple Escrow Contract to book and make a downpayment for a condominium\r\n/// @author AdrianTeoYC\r\n/// @notice You can use this contract if you like, it is not production-ready\r\n/// @dev All function calls are currently implemented without side effects\r\n/// @custom:experimental This is an experimental contract for my consensys blockchain bootcamp.\r\ncontract Escrow is Ownable {\r\n\r\n    /// @dev Status of Property purchases \r\n    enum Status {\r\n        NEW,\r\n        BOOKED,\r\n        COMPLETED\r\n        // TODO V2: CANCEL\r\n    }\r\n\r\n    /// @notice Numnber of properties listed in the Contract\r\n    /// @dev Used as a helper to iterate properties in the frontend\r\n    uint public totalProperties;\r\n    \r\n\r\n    struct Property {\r\n        string roomType;\r\n        uint price;\r\n        Status currentStatus;\r\n        uint deposit;\r\n        address owner;\r\n    }\r\n    \r\n    /// @notice The properties' detail in the contract\r\n    mapping (uint => Property) public properties;\r\n    \r\n    constructor() {\r\n        totalProperties = 0;\r\n    }\r\n    \r\n    /// @dev msg.value is in wei\r\n    modifier isFullDeposit(uint id) {\r\n        require( msg.value == properties[id].price, \"Please pay the full deposit at one go\");\r\n        _;\r\n    }\r\n    \r\n    /// @dev Emit event when a property is created in the contract\r\n    event PropertyCreated(uint id);\r\n    \r\n    /// @dev Emit event when downpayment deposit is made for a property\r\n    event DepositCompleted(uint id, address owner, uint deposit);\r\n    \r\n    /// @dev Emit event when contract owner verify and complete the booking of a property\r\n    event PropertyBooked(uint id);\r\n    \r\n    /// @notice Creates a property listing\r\n    /// @dev Allow only owner of contract to create a property\r\n    /// @param _roomType is the number of bedrooms for this property\r\n    /// @param _price is the price of this property in wei\r\n    function createProperty(string memory _roomType, uint _price) public onlyOwner  returns(uint) {\r\n        // Check property don't exisit, check mapping count\r\n       totalProperties ++;\r\n       properties[totalProperties] = Property(_roomType,  _price, Status.NEW, 0, msg.sender );\r\n       emit PropertyCreated(totalProperties);\r\n       return totalProperties;\r\n    }\r\n    \r\n    /// @notice Buyer to make the downpayment deposit\r\n    /// @dev Payable need to be made in full at one transaction with currentStatus as NEW\r\n    /// @param _id propertyID\r\n    \r\n    function payDeposit(uint _id) isFullDeposit(_id) public payable{\r\n        require(_id >=1 && _id <= totalProperties, \"No such unit for sale\");\r\n        require(properties[_id].currentStatus == Status.NEW, \"Property Unit status is not New\" );\r\n        \r\n        Property memory _property = properties[_id];\r\n        _property.deposit = msg.value;\r\n        _property.owner = msg.sender;\r\n        _property.currentStatus = Status.BOOKED;\r\n        properties[_id] = _property;\r\n        emit DepositCompleted(_id, msg.sender, msg.value);\r\n    }\r\n    \r\n      // TODO V2 Time-base to commplete the purchase, NFT\r\n    // Check if status is PROCESSING\r\n    function completeBooking(uint _id) public onlyOwner {\r\n        require(properties[_id].currentStatus == Status.BOOKED, \"Property is not booked\");\r\n        // TODO transfer ETH to Property developer's account\r\n        Property memory _property = properties[_id];\r\n        _property.currentStatus = Status.COMPLETED;\r\n        properties[_id] = _property;\r\n        emit PropertyBooked(_id);\r\n    }\r\n    // TODO V2 transfer account balance to owner if status.COMPLETED\r\n\r\n}",
  "sourcePath": "D:\\Documents\\GitHub\\blockchain-developer-bootcamp-final-project\\ESCROW\\contracts\\Escrow.sol",
  "compiler": {
    "name": "solc",
    "version": "0.8.9+commit.e5eed63a.Emscripten.clang"
  },
  "schemaVersion": "3.4.3",
  "updatedAt": "2021-11-27T16:50:10.713Z",
  "networkType": "ethereum",
  "devdoc": {
    "author": "AdrianTeoYC",
    "custom:experimental": "This is an experimental contract for my consensys blockchain bootcamp.",
    "details": "All function calls are currently implemented without side effects",
    "events": {
      "DepositCompleted(uint256,address,uint256)": {
        "details": "Emit event when downpayment deposit is made for a property"
      },
      "PropertyBooked(uint256)": {
        "details": "Emit event when contract owner verify and complete the booking of a property"
      },
      "PropertyCreated(uint256)": {
        "details": "Emit event when a property is created in the contract"
      }
    },
    "kind": "dev",
    "methods": {
      "createProperty(string,uint256)": {
        "details": "Allow only owner of contract to create a property",
        "params": {
          "_price": "is the price of this property in wei",
          "_roomType": "is the number of bedrooms for this property"
        }
      },
      "owner()": {
        "details": "Returns the address of the current owner."
      },
      "payDeposit(uint256)": {
        "details": "Payable need to be made in full at one transaction with currentStatus as NEW",
        "params": {
          "_id": "propertyID"
        }
      },
      "renounceOwnership()": {
        "details": "Leaves the contract without owner. It will not be possible to call `onlyOwner` functions anymore. Can only be called by the current owner. NOTE: Renouncing ownership will leave the contract without an owner, thereby removing any functionality that is only available to the owner."
      },
      "transferOwnership(address)": {
        "details": "Transfers ownership of the contract to a new account (`newOwner`). Can only be called by the current owner."
      }
    },
    "stateVariables": {
      "totalProperties": {
        "details": "Used as a helper to iterate properties in the frontend"
      }
    },
    "title": "Simple Escrow Contract to book and make a downpayment for a condominium",
    "version": 1
  },
  "userdoc": {
    "kind": "user",
    "methods": {
      "createProperty(string,uint256)": {
        "notice": "Creates a property listing"
      },
      "payDeposit(uint256)": {
        "notice": "Buyer to make the downpayment deposit"
      },
      "properties(uint256)": {
        "notice": "The properties' detail in the contract"
      },
      "totalProperties()": {
        "notice": "Numnber of properties listed in the Contract"
      }
    },
    "notice": "You can use this contract if you like, it is not production-ready",
    "version": 1
  }
}